{
  "address": "0xf9F1Acd9ee688F099893C4a044f2e08346B5dBfa",
  "abi": [
    {
      "inputs": [
        {
          "internalType": "address",
          "name": "_uniswapV2Router",
          "type": "address"
        },
        {
          "internalType": "address",
          "name": "_uniswapV2Factory",
          "type": "address"
        }
      ],
      "stateMutability": "nonpayable",
      "type": "constructor"
    },
    {
      "inputs": [
        {
          "internalType": "address",
          "name": "token",
          "type": "address"
        }
      ],
      "name": "SafeERC20FailedOperation",
      "type": "error"
    },
    {
      "inputs": [
        {
          "internalType": "uint256",
          "name": "amountUSDC",
          "type": "uint256"
        },
        {
          "internalType": "uint256",
          "name": "amountEURC",
          "type": "uint256"
        },
        {
          "internalType": "uint256",
          "name": "slippageRate",
          "type": "uint256"
        }
      ],
      "name": "addLiquidity",
      "outputs": [],
      "stateMutability": "nonpayable",
      "type": "function"
    },
    {
      "inputs": [
        {
          "internalType": "uint256",
          "name": "amountDesired",
          "type": "uint256"
        },
        {
          "internalType": "uint256",
          "name": "slippageRate",
          "type": "uint256"
        }
      ],
      "name": "applySlippage",
      "outputs": [
        {
          "internalType": "uint256",
          "name": "",
          "type": "uint256"
        }
      ],
      "stateMutability": "pure",
      "type": "function"
    },
    {
      "inputs": [
        {
          "internalType": "uint256",
          "name": "amountIn",
          "type": "uint256"
        }
      ],
      "name": "getAmountsOut",
      "outputs": [
        {
          "internalType": "uint256[]",
          "name": "amounts",
          "type": "uint256[]"
        }
      ],
      "stateMutability": "view",
      "type": "function"
    },
    {
      "inputs": [],
      "name": "getLiquidityBalance",
      "outputs": [
        {
          "internalType": "uint256",
          "name": "",
          "type": "uint256"
        }
      ],
      "stateMutability": "view",
      "type": "function"
    },
    {
      "inputs": [
        {
          "internalType": "uint256",
          "name": "slippageRate",
          "type": "uint256"
        }
      ],
      "name": "removeLiquidity",
      "outputs": [
        {
          "internalType": "uint256",
          "name": "",
          "type": "uint256"
        },
        {
          "internalType": "uint256",
          "name": "",
          "type": "uint256"
        }
      ],
      "stateMutability": "nonpayable",
      "type": "function"
    }
  ],
  "transactionHash": "0x72633668f387ef2f4f38690f2bdda7c2890493d9485a37f69dc3f8fa321e0d62",
  "args": [
    "0xeE567Fe1712Faf6149d80dA1E6934E354124CfE3",
    "0xF62c03E08ada871A0bEb309762E260a7a6a880E6"
  ],
  "numDeployments": 3,
  "solcInputHash": "1792a04aa2434400c4bb22e5d07c2457",
  "bytecode": "0x6080604052731c7d4b196cb0c7b01d743fbc6116a902379c7238600260006101000a81548173ffffffffffffffffffffffffffffffffffffffff021916908373ffffffffffffffffffffffffffffffffffffffff16021790555073fff9976782d46cc05630d1f6ebab18b2324d6b14600360006101000a81548173ffffffffffffffffffffffffffffffffffffffff021916908373ffffffffffffffffffffffffffffffffffffffff1602179055506040518060400160405280600260009054906101000a900473ffffffffffffffffffffffffffffffffffffffff1673ffffffffffffffffffffffffffffffffffffffff1673ffffffffffffffffffffffffffffffffffffffff168152602001600360009054906101000a900473ffffffffffffffffffffffffffffffffffffffff1673ffffffffffffffffffffffffffffffffffffffff1673ffffffffffffffffffffffffffffffffffffffff16815250600490600261016f929190610348565b5034801561017c57600080fd5b506040516119e03803806119e0833981810160405281019061019e9190610452565b816000806101000a81548173ffffffffffffffffffffffffffffffffffffffff021916908373ffffffffffffffffffffffffffffffffffffffff16021790555080600160006101000a81548173ffffffffffffffffffffffffffffffffffffffff021916908373ffffffffffffffffffffffffffffffffffffffff160217905550600160009054906101000a900473ffffffffffffffffffffffffffffffffffffffff1673ffffffffffffffffffffffffffffffffffffffff1663e6a43905600260009054906101000a900473ffffffffffffffffffffffffffffffffffffffff16600360009054906101000a900473ffffffffffffffffffffffffffffffffffffffff166040518363ffffffff1660e01b81526004016102c09291906104a1565b602060405180830381865afa1580156102dd573d6000803e3d6000fd5b505050506040513d601f19601f8201168201806040525081019061030191906104ca565b600560006101000a81548173ffffffffffffffffffffffffffffffffffffffff021916908373ffffffffffffffffffffffffffffffffffffffff16021790555050506104f7565b8280548282559060005260206000209081019282156103c1579160200282015b828111156103c05782518260006101000a81548173ffffffffffffffffffffffffffffffffffffffff021916908373ffffffffffffffffffffffffffffffffffffffff16021790555091602001919060010190610368565b5b5090506103ce91906103d2565b5090565b5b808211156103eb5760008160009055506001016103d3565b5090565b600080fd5b600073ffffffffffffffffffffffffffffffffffffffff82169050919050565b600061041f826103f4565b9050919050565b61042f81610414565b811461043a57600080fd5b50565b60008151905061044c81610426565b92915050565b60008060408385031215610469576104686103ef565b5b60006104778582860161043d565b92505060206104888582860161043d565b9150509250929050565b61049b81610414565b82525050565b60006040820190506104b66000830185610492565b6104c36020830184610492565b9392505050565b6000602082840312156104e0576104df6103ef565b5b60006104ee8482850161043d565b91505092915050565b6114da806105066000396000f3fe608060405234801561001057600080fd5b50600436106100575760003560e01c8063422f10431461005c5780639c8f9f2314610078578063c1153aaa146100a9578063c470bc20146100d9578063f2e99ff614610109575b600080fd5b61007660048036038101906100719190610aca565b610127565b005b610092600480360381019061008d9190610b1d565b610468565b6040516100a0929190610b59565b60405180910390f35b6100c360048036038101906100be9190610b1d565b6107e1565b6040516100d09190610c40565b60405180910390f35b6100f360048036038101906100ee9190610c62565b61088c565b6040516101009190610ca2565b60405180910390f35b6101116108b9565b60405161011e9190610ca2565b60405180910390f35b610176333085600260009054906101000a900473ffffffffffffffffffffffffffffffffffffffff1673ffffffffffffffffffffffffffffffffffffffff1661095c909392919063ffffffff16565b6101c5333084600360009054906101000a900473ffffffffffffffffffffffffffffffffffffffff1673ffffffffffffffffffffffffffffffffffffffff1661095c909392919063ffffffff16565b600260009054906101000a900473ffffffffffffffffffffffffffffffffffffffff1673ffffffffffffffffffffffffffffffffffffffff1663095ea7b360008054906101000a900473ffffffffffffffffffffffffffffffffffffffff16856040518363ffffffff1660e01b8152600401610242929190610cfe565b6020604051808303816000875af1158015610261573d6000803e3d6000fd5b505050506040513d601f19601f820116820180604052508101906102859190610d5f565b50600360009054906101000a900473ffffffffffffffffffffffffffffffffffffffff1673ffffffffffffffffffffffffffffffffffffffff1663095ea7b360008054906101000a900473ffffffffffffffffffffffffffffffffffffffff16846040518363ffffffff1660e01b8152600401610303929190610cfe565b6020604051808303816000875af1158015610322573d6000803e3d6000fd5b505050506040513d601f19601f820116820180604052508101906103469190610d5f565b506000610353848361088c565b90506000610361848461088c565b905060008054906101000a900473ffffffffffffffffffffffffffffffffffffffff1673ffffffffffffffffffffffffffffffffffffffff1663e8e33700600260009054906101000a900473ffffffffffffffffffffffffffffffffffffffff16600360009054906101000a900473ffffffffffffffffffffffffffffffffffffffff16888887873361012c426103f89190610dbb565b6040518963ffffffff1660e01b815260040161041b989796959493929190610def565b6060604051808303816000875af115801561043a573d6000803e3d6000fd5b505050506040513d601f19601f8201168201806040525081019061045e9190610e82565b5050505050505050565b600080600080600560009054906101000a900473ffffffffffffffffffffffffffffffffffffffff1673ffffffffffffffffffffffffffffffffffffffff16630902f1ac6040518163ffffffff1660e01b8152600401606060405180830381865afa1580156104db573d6000803e3d6000fd5b505050506040513d601f19601f820116820180604052508101906104ff9190610f57565b506dffffffffffffffffffffffffffff1691506dffffffffffffffffffffffffffff169150600061052e6108b9565b90506000600560009054906101000a900473ffffffffffffffffffffffffffffffffffffffff1673ffffffffffffffffffffffffffffffffffffffff166318160ddd6040518163ffffffff1660e01b8152600401602060405180830381865afa15801561059f573d6000803e3d6000fd5b505050506040513d601f19601f820116820180604052508101906105c39190610faa565b905060008185846105d49190610fd7565b6105de9190611048565b905060008285856105ef9190610fd7565b6105f99190611048565b90506000610607838b61088c565b90506000610615838c61088c565b9050600560009054906101000a900473ffffffffffffffffffffffffffffffffffffffff1673ffffffffffffffffffffffffffffffffffffffff1663095ea7b360008054906101000a900473ffffffffffffffffffffffffffffffffffffffff16886040518363ffffffff1660e01b8152600401610694929190610cfe565b6020604051808303816000875af11580156106b3573d6000803e3d6000fd5b505050506040513d601f19601f820116820180604052508101906106d79190610d5f565b5060008054906101000a900473ffffffffffffffffffffffffffffffffffffffff1673ffffffffffffffffffffffffffffffffffffffff1663baa2abde600260009054906101000a900473ffffffffffffffffffffffffffffffffffffffff16600360009054906101000a900473ffffffffffffffffffffffffffffffffffffffff168986863361012c4261076c9190610dbb565b6040518863ffffffff1660e01b815260040161078e9796959493929190611079565b60408051808303816000875af11580156107ac573d6000803e3d6000fd5b505050506040513d601f19601f820116820180604052508101906107d091906110e8565b995099505050505050505050915091565b606060008054906101000a900473ffffffffffffffffffffffffffffffffffffffff1673ffffffffffffffffffffffffffffffffffffffff16631f00ca748360046040518363ffffffff1660e01b815260040161083f92919061124c565b600060405180830381865afa15801561085c573d6000803e3d6000fd5b505050506040513d6000823e3d601f19601f8201168201806040525081019061088591906113d5565b9050919050565b60006064828461089c9190610fd7565b6108a69190611048565b836108b1919061141e565b905092915050565b6000600560009054906101000a900473ffffffffffffffffffffffffffffffffffffffff1673ffffffffffffffffffffffffffffffffffffffff166370a08231336040518263ffffffff1660e01b81526004016109169190611452565b602060405180830381865afa158015610933573d6000803e3d6000fd5b505050506040513d601f19601f820116820180604052508101906109579190610faa565b905090565b6109d8848573ffffffffffffffffffffffffffffffffffffffff166323b872dd8686866040516024016109919392919061146d565b604051602081830303815290604052915060e01b6020820180517bffffffffffffffffffffffffffffffffffffffffffffffffffffffff83818316178352505050506109de565b50505050565b600080602060008451602086016000885af180610a01576040513d6000823e3d81fd5b3d925060005191505060008214610a1c576001811415610a38565b60008473ffffffffffffffffffffffffffffffffffffffff163b145b15610a7a57836040517f5274afe7000000000000000000000000000000000000000000000000000000008152600401610a719190611452565b60405180910390fd5b50505050565b6000604051905090565b600080fd5b600080fd5b6000819050919050565b610aa781610a94565b8114610ab257600080fd5b50565b600081359050610ac481610a9e565b92915050565b600080600060608486031215610ae357610ae2610a8a565b5b6000610af186828701610ab5565b9350506020610b0286828701610ab5565b9250506040610b1386828701610ab5565b9150509250925092565b600060208284031215610b3357610b32610a8a565b5b6000610b4184828501610ab5565b91505092915050565b610b5381610a94565b82525050565b6000604082019050610b6e6000830185610b4a565b610b7b6020830184610b4a565b9392505050565b600081519050919050565b600082825260208201905092915050565b6000819050602082019050919050565b610bb781610a94565b82525050565b6000610bc98383610bae565b60208301905092915050565b6000602082019050919050565b6000610bed82610b82565b610bf78185610b8d565b9350610c0283610b9e565b8060005b83811015610c33578151610c1a8882610bbd565b9750610c2583610bd5565b925050600181019050610c06565b5085935050505092915050565b60006020820190508181036000830152610c5a8184610be2565b905092915050565b60008060408385031215610c7957610c78610a8a565b5b6000610c8785828601610ab5565b9250506020610c9885828601610ab5565b9150509250929050565b6000602082019050610cb76000830184610b4a565b92915050565b600073ffffffffffffffffffffffffffffffffffffffff82169050919050565b6000610ce882610cbd565b9050919050565b610cf881610cdd565b82525050565b6000604082019050610d136000830185610cef565b610d206020830184610b4a565b9392505050565b60008115159050919050565b610d3c81610d27565b8114610d4757600080fd5b50565b600081519050610d5981610d33565b92915050565b600060208284031215610d7557610d74610a8a565b5b6000610d8384828501610d4a565b91505092915050565b7f4e487b7100000000000000000000000000000000000000000000000000000000600052601160045260246000fd5b6000610dc682610a94565b9150610dd183610a94565b9250828201905080821115610de957610de8610d8c565b5b92915050565b600061010082019050610e05600083018b610cef565b610e12602083018a610cef565b610e1f6040830189610b4a565b610e2c6060830188610b4a565b610e396080830187610b4a565b610e4660a0830186610b4a565b610e5360c0830185610cef565b610e6060e0830184610b4a565b9998505050505050505050565b600081519050610e7c81610a9e565b92915050565b600080600060608486031215610e9b57610e9a610a8a565b5b6000610ea986828701610e6d565b9350506020610eba86828701610e6d565b9250506040610ecb86828701610e6d565b9150509250925092565b60006dffffffffffffffffffffffffffff82169050919050565b610ef881610ed5565b8114610f0357600080fd5b50565b600081519050610f1581610eef565b92915050565b600063ffffffff82169050919050565b610f3481610f1b565b8114610f3f57600080fd5b50565b600081519050610f5181610f2b565b92915050565b600080600060608486031215610f7057610f6f610a8a565b5b6000610f7e86828701610f06565b9350506020610f8f86828701610f06565b9250506040610fa086828701610f42565b9150509250925092565b600060208284031215610fc057610fbf610a8a565b5b6000610fce84828501610e6d565b91505092915050565b6000610fe282610a94565b9150610fed83610a94565b9250828202610ffb81610a94565b9150828204841483151761101257611011610d8c565b5b5092915050565b7f4e487b7100000000000000000000000000000000000000000000000000000000600052601260045260246000fd5b600061105382610a94565b915061105e83610a94565b92508261106e5761106d611019565b5b828204905092915050565b600060e08201905061108e600083018a610cef565b61109b6020830189610cef565b6110a86040830188610b4a565b6110b56060830187610b4a565b6110c26080830186610b4a565b6110cf60a0830185610cef565b6110dc60c0830184610b4a565b98975050505050505050565b600080604083850312156110ff576110fe610a8a565b5b600061110d85828601610e6d565b925050602061111e85828601610e6d565b9150509250929050565b600081549050919050565b600082825260208201905092915050565b60008190508160005260206000209050919050565b61116281610cdd565b82525050565b60006111748383611159565b60208301905092915050565b60008160001c9050919050565b600073ffffffffffffffffffffffffffffffffffffffff82169050919050565b60006111c06111bb83611180565b61118d565b9050919050565b60006111d382546111ad565b9050919050565b6000600182019050919050565b60006111f282611128565b6111fc8185611133565b935061120783611144565b8060005b8381101561123f5761121c826111c7565b6112268882611168565b9750611231836111da565b92505060018101905061120b565b5085935050505092915050565b60006040820190506112616000830185610b4a565b818103602083015261127381846111e7565b90509392505050565b600080fd5b6000601f19601f8301169050919050565b7f4e487b7100000000000000000000000000000000000000000000000000000000600052604160045260246000fd5b6112ca82611281565b810181811067ffffffffffffffff821117156112e9576112e8611292565b5b80604052505050565b60006112fc610a80565b905061130882826112c1565b919050565b600067ffffffffffffffff82111561132857611327611292565b5b602082029050602081019050919050565b600080fd5b600061135161134c8461130d565b6112f2565b9050808382526020820190506020840283018581111561137457611373611339565b5b835b8181101561139d57806113898882610e6d565b845260208401935050602081019050611376565b5050509392505050565b600082601f8301126113bc576113bb61127c565b5b81516113cc84826020860161133e565b91505092915050565b6000602082840312156113eb576113ea610a8a565b5b600082015167ffffffffffffffff81111561140957611408610a8f565b5b611415848285016113a7565b91505092915050565b600061142982610a94565b915061143483610a94565b925082820390508181111561144c5761144b610d8c565b5b92915050565b60006020820190506114676000830184610cef565b92915050565b60006060820190506114826000830186610cef565b61148f6020830185610cef565b61149c6040830184610b4a565b94935050505056fea26469706673582212201227246e3c0e39c366ca863a2c5b0fd06ccb7f5855508a03ab882115cddae97b64736f6c634300081c0033",
  "devdoc": {
    "errors": {
      "SafeERC20FailedOperation(address)": [
        {
          "details": "An operation with an ERC-20 token failed."
        }
      ]
    },
    "kind": "dev",
    "methods": {},
    "version": 1
  },
  "userdoc": {
    "kind": "user",
    "methods": {},
    "version": 1
  },
  "storageLayout": {
    "storage": [
      {
        "astId": 1303,
        "contract": "contracts/Liquidity.sol:Liquidity",
        "label": "router",
        "offset": 0,
        "slot": "0",
        "type": "t_contract(IUniswapV2Router02)1289"
      },
      {
        "astId": 1306,
        "contract": "contracts/Liquidity.sol:Liquidity",
        "label": "factory",
        "offset": 0,
        "slot": "1",
        "type": "t_contract(IUniswapV2Factory)651"
      },
      {
        "astId": 1309,
        "contract": "contracts/Liquidity.sol:Liquidity",
        "label": "USDC",
        "offset": 0,
        "slot": "2",
        "type": "t_address"
      },
      {
        "astId": 1312,
        "contract": "contracts/Liquidity.sol:Liquidity",
        "label": "WETH",
        "offset": 0,
        "slot": "3",
        "type": "t_address"
      },
      {
        "astId": 1318,
        "contract": "contracts/Liquidity.sol:Liquidity",
        "label": "path",
        "offset": 0,
        "slot": "4",
        "type": "t_array(t_address)dyn_storage"
      },
      {
        "astId": 1321,
        "contract": "contracts/Liquidity.sol:Liquidity",
        "label": "pair",
        "offset": 0,
        "slot": "5",
        "type": "t_contract(IUniswapV2Pair)893"
      }
    ],
    "types": {
      "t_address": {
        "encoding": "inplace",
        "label": "address",
        "numberOfBytes": "20"
      },
      "t_array(t_address)dyn_storage": {
        "base": "t_address",
        "encoding": "dynamic_array",
        "label": "address[]",
        "numberOfBytes": "32"
      },
      "t_contract(IUniswapV2Factory)651": {
        "encoding": "inplace",
        "label": "contract IUniswapV2Factory",
        "numberOfBytes": "20"
      },
      "t_contract(IUniswapV2Pair)893": {
        "encoding": "inplace",
        "label": "contract IUniswapV2Pair",
        "numberOfBytes": "20"
      },
      "t_contract(IUniswapV2Router02)1289": {
        "encoding": "inplace",
        "label": "contract IUniswapV2Router02",
        "numberOfBytes": "20"
      }
    }
  }
}