{
  "address": "0xd95aa546e9745CDF7c5CC3f8ce6F719173e048c6",
  "abi": [
    {
      "inputs": [],
      "name": "router",
      "outputs": [
        {
          "internalType": "contract IUniswapV2Router02",
          "name": "",
          "type": "address"
        }
      ],
      "stateMutability": "view",
      "type": "function"
    },
    {
      "inputs": [
        {
          "internalType": "uint256",
          "name": "amount",
          "type": "uint256"
        }
      ],
      "name": "swapEURCForUSDC",
      "outputs": [],
      "stateMutability": "nonpayable",
      "type": "function"
    },
    {
      "inputs": [],
      "name": "swapExactETHForTokens",
      "outputs": [],
      "stateMutability": "payable",
      "type": "function"
    },
    {
      "inputs": [
        {
          "internalType": "uint256",
          "name": "amount",
          "type": "uint256"
        }
      ],
      "name": "swapUSDForETH",
      "outputs": [],
      "stateMutability": "nonpayable",
      "type": "function"
    },
    {
      "inputs": [
        {
          "internalType": "uint256",
          "name": "amount",
          "type": "uint256"
        }
      ],
      "name": "swapUSDForEURC",
      "outputs": [],
      "stateMutability": "nonpayable",
      "type": "function"
    },
    {
      "inputs": [],
      "name": "withdraw",
      "outputs": [],
      "stateMutability": "nonpayable",
      "type": "function"
    }
  ],
  "transactionHash": "0x34a0dff1cd0138575b7e6c13270574fc9c315e208f8f82ef3c67f89d8c906527",
  "args": [],
  "numDeployments": 1,
  "solcInputHash": "c5ec992cf6ef0d9726825907d198b974",
  "bytecode": "0x608060405273ee567fe1712faf6149d80da1e6934e354124cfe36000806101000a81548173ffffffffffffffffffffffffffffffffffffffff021916908373ffffffffffffffffffffffffffffffffffffffff16021790555060008054906101000a900473ffffffffffffffffffffffffffffffffffffffff1673ffffffffffffffffffffffffffffffffffffffff1663ad5c46486040518163ffffffff1660e01b8152600401602060405180830381865afa1580156100c3573d6000803e3d6000fd5b505050506040513d601f19601f820116820180604052508101906100e791906105f5565b600160006101000a81548173ffffffffffffffffffffffffffffffffffffffff021916908373ffffffffffffffffffffffffffffffffffffffff160217905550731c7d4b196cb0c7b01d743fbc6116a902379c7238600260006101000a81548173ffffffffffffffffffffffffffffffffffffffff021916908373ffffffffffffffffffffffffffffffffffffffff1602179055507308210f9170f89ab7658f0b5e3ff39b0e03c594d4600360006101000a81548173ffffffffffffffffffffffffffffffffffffffff021916908373ffffffffffffffffffffffffffffffffffffffff1602179055506040518060400160405280600160009054906101000a900473ffffffffffffffffffffffffffffffffffffffff1673ffffffffffffffffffffffffffffffffffffffff1673ffffffffffffffffffffffffffffffffffffffff168152602001600260009054906101000a900473ffffffffffffffffffffffffffffffffffffffff1673ffffffffffffffffffffffffffffffffffffffff1673ffffffffffffffffffffffffffffffffffffffff1681525060049060026102929291906104eb565b506040518060400160405280600260009054906101000a900473ffffffffffffffffffffffffffffffffffffffff1673ffffffffffffffffffffffffffffffffffffffff1673ffffffffffffffffffffffffffffffffffffffff168152602001600160009054906101000a900473ffffffffffffffffffffffffffffffffffffffff1673ffffffffffffffffffffffffffffffffffffffff1673ffffffffffffffffffffffffffffffffffffffff1681525060059060026103549291906104eb565b506040518060400160405280600360009054906101000a900473ffffffffffffffffffffffffffffffffffffffff1673ffffffffffffffffffffffffffffffffffffffff1673ffffffffffffffffffffffffffffffffffffffff168152602001600260009054906101000a900473ffffffffffffffffffffffffffffffffffffffff1673ffffffffffffffffffffffffffffffffffffffff1673ffffffffffffffffffffffffffffffffffffffff1681525060069060026104169291906104eb565b506040518060400160405280600260009054906101000a900473ffffffffffffffffffffffffffffffffffffffff1673ffffffffffffffffffffffffffffffffffffffff1673ffffffffffffffffffffffffffffffffffffffff168152602001600360009054906101000a900473ffffffffffffffffffffffffffffffffffffffff1673ffffffffffffffffffffffffffffffffffffffff1673ffffffffffffffffffffffffffffffffffffffff1681525060079060026104d89291906104eb565b503480156104e557600080fd5b50610622565b828054828255906000526020600020908101928215610564579160200282015b828111156105635782518260006101000a81548173ffffffffffffffffffffffffffffffffffffffff021916908373ffffffffffffffffffffffffffffffffffffffff1602179055509160200191906001019061050b565b5b5090506105719190610575565b5090565b5b8082111561058e576000816000905550600101610576565b5090565b600080fd5b600073ffffffffffffffffffffffffffffffffffffffff82169050919050565b60006105c282610597565b9050919050565b6105d2816105b7565b81146105dd57600080fd5b50565b6000815190506105ef816105c9565b92915050565b60006020828403121561060b5761060a610592565b5b6000610619848285016105e0565b91505092915050565b610f03806106316000396000f3fe6080604052600436106100555760003560e01c80630d7e7f231461005a5780633ccfd60b1461008357806351f839ac1461009a578063da455f01146100c3578063f281cc14146100ec578063f887ea40146100f6575b600080fd5b34801561006657600080fd5b50610081600480360381019061007c91906108f2565b610121565b005b34801561008f57600080fd5b50610098610341565b005b3480156100a657600080fd5b506100c160048036038101906100bc91906108f2565b61038a565b005b3480156100cf57600080fd5b506100ea60048036038101906100e591906108f2565b6105aa565b005b6100f46107ca565b005b34801561010257600080fd5b5061010b610884565b604051610118919061099e565b60405180910390f35b600360009054906101000a900473ffffffffffffffffffffffffffffffffffffffff1673ffffffffffffffffffffffffffffffffffffffff166323b872dd3330846040518463ffffffff1660e01b8152600401610180939291906109e9565b6020604051808303816000875af115801561019f573d6000803e3d6000fd5b505050506040513d601f19601f820116820180604052508101906101c39190610a58565b50600360009054906101000a900473ffffffffffffffffffffffffffffffffffffffff1673ffffffffffffffffffffffffffffffffffffffff1663095ea7b360008054906101000a900473ffffffffffffffffffffffffffffffffffffffff16836040518363ffffffff1660e01b8152600401610241929190610a85565b6020604051808303816000875af1158015610260573d6000803e3d6000fd5b505050506040513d601f19601f820116820180604052508101906102849190610a58565b5060008054906101000a900473ffffffffffffffffffffffffffffffffffffffff1673ffffffffffffffffffffffffffffffffffffffff166338ed173982600060063361012c426102d59190610add565b6040518663ffffffff1660e01b81526004016102f5959493929190610c70565b6000604051808303816000875af1158015610314573d6000803e3d6000fd5b505050506040513d6000823e3d601f19601f8201168201806040525081019061033d9190610e38565b5050565b3373ffffffffffffffffffffffffffffffffffffffff166108fc479081150290604051600060405180830381858888f19350505050158015610387573d6000803e3d6000fd5b50565b600260009054906101000a900473ffffffffffffffffffffffffffffffffffffffff1673ffffffffffffffffffffffffffffffffffffffff166323b872dd3330846040518463ffffffff1660e01b81526004016103e9939291906109e9565b6020604051808303816000875af1158015610408573d6000803e3d6000fd5b505050506040513d601f19601f8201168201806040525081019061042c9190610a58565b50600260009054906101000a900473ffffffffffffffffffffffffffffffffffffffff1673ffffffffffffffffffffffffffffffffffffffff1663095ea7b360008054906101000a900473ffffffffffffffffffffffffffffffffffffffff16836040518363ffffffff1660e01b81526004016104aa929190610a85565b6020604051808303816000875af11580156104c9573d6000803e3d6000fd5b505050506040513d601f19601f820116820180604052508101906104ed9190610a58565b5060008054906101000a900473ffffffffffffffffffffffffffffffffffffffff1673ffffffffffffffffffffffffffffffffffffffff166338ed173982600060073361012c4261053e9190610add565b6040518663ffffffff1660e01b815260040161055e959493929190610c70565b6000604051808303816000875af115801561057d573d6000803e3d6000fd5b505050506040513d6000823e3d601f19601f820116820180604052508101906105a69190610e38565b5050565b600260009054906101000a900473ffffffffffffffffffffffffffffffffffffffff1673ffffffffffffffffffffffffffffffffffffffff166323b872dd3330846040518463ffffffff1660e01b8152600401610609939291906109e9565b6020604051808303816000875af1158015610628573d6000803e3d6000fd5b505050506040513d601f19601f8201168201806040525081019061064c9190610a58565b50600260009054906101000a900473ffffffffffffffffffffffffffffffffffffffff1673ffffffffffffffffffffffffffffffffffffffff1663095ea7b360008054906101000a900473ffffffffffffffffffffffffffffffffffffffff16836040518363ffffffff1660e01b81526004016106ca929190610a85565b6020604051808303816000875af11580156106e9573d6000803e3d6000fd5b505050506040513d601f19601f8201168201806040525081019061070d9190610a58565b5060008054906101000a900473ffffffffffffffffffffffffffffffffffffffff1673ffffffffffffffffffffffffffffffffffffffff166318cbafe582600060053361012c4261075e9190610add565b6040518663ffffffff1660e01b815260040161077e959493929190610c70565b6000604051808303816000875af115801561079d573d6000803e3d6000fd5b505050506040513d6000823e3d601f19601f820116820180604052508101906107c69190610e38565b5050565b60008054906101000a900473ffffffffffffffffffffffffffffffffffffffff1673ffffffffffffffffffffffffffffffffffffffff16637ff36ab534600060043361012c4261081a9190610add565b6040518663ffffffff1660e01b81526004016108399493929190610e81565b60006040518083038185885af1158015610857573d6000803e3d6000fd5b50505050506040513d6000823e3d601f19601f820116820180604052508101906108819190610e38565b50565b60008054906101000a900473ffffffffffffffffffffffffffffffffffffffff1681565b6000604051905090565b600080fd5b600080fd5b6000819050919050565b6108cf816108bc565b81146108da57600080fd5b50565b6000813590506108ec816108c6565b92915050565b600060208284031215610908576109076108b2565b5b6000610916848285016108dd565b91505092915050565b600073ffffffffffffffffffffffffffffffffffffffff82169050919050565b6000819050919050565b600061096461095f61095a8461091f565b61093f565b61091f565b9050919050565b600061097682610949565b9050919050565b60006109888261096b565b9050919050565b6109988161097d565b82525050565b60006020820190506109b3600083018461098f565b92915050565b60006109c48261091f565b9050919050565b6109d4816109b9565b82525050565b6109e3816108bc565b82525050565b60006060820190506109fe60008301866109cb565b610a0b60208301856109cb565b610a1860408301846109da565b949350505050565b60008115159050919050565b610a3581610a20565b8114610a4057600080fd5b50565b600081519050610a5281610a2c565b92915050565b600060208284031215610a6e57610a6d6108b2565b5b6000610a7c84828501610a43565b91505092915050565b6000604082019050610a9a60008301856109cb565b610aa760208301846109da565b9392505050565b7f4e487b7100000000000000000000000000000000000000000000000000000000600052601160045260246000fd5b6000610ae8826108bc565b9150610af3836108bc565b9250828201905080821115610b0b57610b0a610aae565b5b92915050565b6000819050919050565b6000610b36610b31610b2c84610b11565b61093f565b6108bc565b9050919050565b610b4681610b1b565b82525050565b600081549050919050565b600082825260208201905092915050565b60008190508160005260206000209050919050565b610b86816109b9565b82525050565b6000610b988383610b7d565b60208301905092915050565b60008160001c9050919050565b600073ffffffffffffffffffffffffffffffffffffffff82169050919050565b6000610be4610bdf83610ba4565b610bb1565b9050919050565b6000610bf78254610bd1565b9050919050565b6000600182019050919050565b6000610c1682610b4c565b610c208185610b57565b9350610c2b83610b68565b8060005b83811015610c6357610c4082610beb565b610c4a8882610b8c565b9750610c5583610bfe565b925050600181019050610c2f565b5085935050505092915050565b600060a082019050610c8560008301886109da565b610c926020830187610b3d565b8181036040830152610ca48186610c0b565b9050610cb360608301856109cb565b610cc060808301846109da565b9695505050505050565b600080fd5b6000601f19601f8301169050919050565b7f4e487b7100000000000000000000000000000000000000000000000000000000600052604160045260246000fd5b610d1882610ccf565b810181811067ffffffffffffffff82111715610d3757610d36610ce0565b5b80604052505050565b6000610d4a6108a8565b9050610d568282610d0f565b919050565b600067ffffffffffffffff821115610d7657610d75610ce0565b5b602082029050602081019050919050565b600080fd5b600081519050610d9b816108c6565b92915050565b6000610db4610daf84610d5b565b610d40565b90508083825260208201905060208402830185811115610dd757610dd6610d87565b5b835b81811015610e005780610dec8882610d8c565b845260208401935050602081019050610dd9565b5050509392505050565b600082601f830112610e1f57610e1e610cca565b5b8151610e2f848260208601610da1565b91505092915050565b600060208284031215610e4e57610e4d6108b2565b5b600082015167ffffffffffffffff811115610e6c57610e6b6108b7565b5b610e7884828501610e0a565b91505092915050565b6000608082019050610e966000830187610b3d565b8181036020830152610ea88186610c0b565b9050610eb760408301856109cb565b610ec460608301846109da565b9594505050505056fea26469706673582212200d9acb2bf2363262a7c7d1eddcf07e18be9b4f627c58a74cbbb44cdcea8145ef64736f6c634300081c0033",
  "devdoc": {
    "kind": "dev",
    "methods": {},
    "version": 1
  },
  "userdoc": {
    "kind": "user",
    "methods": {},
    "version": 1
  },
  "storageLayout": {
    "storage": [
      {
        "astId": 1763,
        "contract": "contracts/Swaping.sol:Swaping",
        "label": "router",
        "offset": 0,
        "slot": "0",
        "type": "t_contract(IUniswapV2Router02)1268"
      },
      {
        "astId": 1768,
        "contract": "contracts/Swaping.sol:Swaping",
        "label": "WETH",
        "offset": 0,
        "slot": "1",
        "type": "t_address"
      },
      {
        "astId": 1771,
        "contract": "contracts/Swaping.sol:Swaping",
        "label": "USDC",
        "offset": 0,
        "slot": "2",
        "type": "t_address"
      },
      {
        "astId": 1774,
        "contract": "contracts/Swaping.sol:Swaping",
        "label": "EURC",
        "offset": 0,
        "slot": "3",
        "type": "t_address"
      },
      {
        "astId": 1780,
        "contract": "contracts/Swaping.sol:Swaping",
        "label": "pathWthToUSDC",
        "offset": 0,
        "slot": "4",
        "type": "t_array(t_address)dyn_storage"
      },
      {
        "astId": 1786,
        "contract": "contracts/Swaping.sol:Swaping",
        "label": "pathUSDCToETH",
        "offset": 0,
        "slot": "5",
        "type": "t_array(t_address)dyn_storage"
      },
      {
        "astId": 1792,
        "contract": "contracts/Swaping.sol:Swaping",
        "label": "pathEURCToUSDC",
        "offset": 0,
        "slot": "6",
        "type": "t_array(t_address)dyn_storage"
      },
      {
        "astId": 1798,
        "contract": "contracts/Swaping.sol:Swaping",
        "label": "pathUSDCToEURC",
        "offset": 0,
        "slot": "7",
        "type": "t_array(t_address)dyn_storage"
      }
    ],
    "types": {
      "t_address": {
        "encoding": "inplace",
        "label": "address",
        "numberOfBytes": "20"
      },
      "t_array(t_address)dyn_storage": {
        "base": "t_address",
        "encoding": "dynamic_array",
        "label": "address[]",
        "numberOfBytes": "32"
      },
      "t_contract(IUniswapV2Router02)1268": {
        "encoding": "inplace",
        "label": "contract IUniswapV2Router02",
        "numberOfBytes": "20"
      }
    }
  }
}